:100000000C945D000C9485000C9485000C94850084
:100010000C9485000C9485000C9485000C9485004C
:100020000C9485000C9485000C9485000C9485003C
:100030000C9485000C9485000C9485000C9485002C
:100040000C9455090C9485000C94C5090C949F09D7
:100050000C9485000C9485000C9485000C9485000C
:100060000C9485000C94850000000008000201003B
:100070000003040700000000000000000000000072
:10008000250028002B0000000000240027002A0083
:10009000040404040404040402020202020203032E
:1000A0000303030301020408102040800102040836
:1000B0001020010204081020F70911241FBECFEF01
:1000C000D8E0DEBFCDBF11E0A0E0B1E0E4ECF8E1A4
:1000D00002C005900D92AA38B107D9F722E0AAE82C
:1000E000B1E001C01D92AE36B207E1F710E0CDE5F8
:1000F000D0E004C02197FE010E945A0CCC35D107F4
:10010000C9F70E945E0A0C94600C0C94000090E009
:10011000FC01EC55FF4F249180579F4FFC018491C7
:10012000882399F090E0880F991FFC01EA57FF4F50
:10013000A591B491FC01E458FF4F859194918FB73C
:10014000F894EC91E22BEC938FBF089590E0FC01C2
:10015000E859FF4F2491FC01EC55FF4F3491FC010D
:10016000E057FF4FE491EE23C9F0222339F023300A
:1001700001F1A8F4213019F1223029F1F0E0EE0F5D
:10018000FF1FE458FF4FA591B4918FB7F894EC91FD
:10019000611126C030953E233C938FBF08952730D0
:1001A000A9F02830C9F0243049F7809180008F7D74
:1001B00003C0809180008F7780938000DFCF84B56B
:1001C0008F7784BDDBCF84B58F7DFBCF8091B0006E
:1001D0008F778093B000D2CF8091B0008F7DF9CF20
:1001E0003E2BDACF8E50806480937C0080917A0021
:1001F000806480937A0080917A0086FDFCCF8091A4
:1002000078009091790008953FB7F8948091AF01FC
:100210009091B001A091B101B091B20126B5A89B17
:1002200005C02F3F19F00196A11DB11D3FBFBA2F88
:10023000A92F982F8827BC01CD01620F711D811D48
:10024000911D42E0660F771F881F991F4A95D1F7CD
:1002500008958F929F92AF92BF92CF92DF92EF92CA
:10026000FF924B015C010E9404016B017C010E9422
:1002700004016C197D098E099F09683E7340810550
:100280009105A8F321E0821A9108A108B10888EE2F
:10029000C80E83E0D81EE11CF11C81149104A10456
:1002A000B10429F7FF90EF90DF90CF90BF90AF900F
:1002B0009F908F900895DC01ED91FC910190F08169
:1002C000E02D0994AF92BF92CF92DF92EF92FF920E
:1002D0000F931F93CF93DF936C017B018B01040F6E
:1002E000151FEB015E01AE18BF08C017D10759F00A
:1002F0006991D601ED91FC910190F081E02DC6014C
:100300000995892B79F7C501DF91CF911F910F9145
:10031000FF90EF90DF90CF90BF90AF900895FC01D9
:10032000538D448D252F30E0842F90E0821B930B5A
:10033000541710F0CF96089501970895FC01918D00
:10034000828D981761F0A28DAE0FBF2FB11D5D9603
:100350008C91928D9F5F9F73928F90E008958FEFA5
:100360009FEF0895FC01918D828D981731F0828D59
:10037000E80FF11D858D90E008958FEF9FEF0895B0
:10038000FC01918D228D892F90E0805C9F4F821B14
:1003900091098F739927089583EB91E00E94C00122
:1003A00021E0892B09F420E0822F089580E090E07D
:1003B000892B29F00E94CC0181110C940000089532
:1003C000FC01A48DA80FB92FB11DA35ABF4F2C91CA
:1003D000848D90E001968F739927848FA689B789C1
:1003E0002C93A089B1898C91837080648C93938DB8
:1003F000848D981306C00288F389E02D80818F7D5B
:1004000080830895EF92FF920F931F93CF93DF9312
:10041000EC0181E0888F9B8D8C8D98131AC0E88940
:10042000F989808185FF15C09FB7F894EE89FF890F
:100430006083E889F98980818370806480839FBFAD
:1004400081E090E0DF91CF911F910F91FF90EF90AD
:100450000895F62E0B8D10E00F5F1F4F0F731127BD
:10046000E02E8C8D8E110CC00FB607FCFACFE889F8
:10047000F989808185FFF5CFCE010E94E001F1CF9F
:10048000EB8DEC0FFD2FF11DE35AFF4FF0829FB76C
:10049000F8940B8FEA89FB8980818062CFCFCF935C
:1004A000DF93EC01888D8823B9F0AA89BB89E8899C
:1004B000F9898C9185FD03C0808186FD0DC00FB642
:1004C00007FCF7CF8C9185FFF2CF808185FFEDCFC0
:1004D000CE010E94E001E9CFDF91CF910895089508
:1004E00090E080E00895CF92DF92EF92FF920F9319
:1004F0001F93CF93DF938FE00E94F200BC01990F0E
:10050000880B990B0E943F0B20E030E040E05FE356
:100510000E94A30B0E94070B6B018B018AE00E94D3
:1005200087008BE00E9487008CE00E9487008DE0AE
:100530000E948700C0915402D091550260E0CC1512
:10054000DD0514F58AE00E94A60060E08BE00E94C1
:10055000A600C6010197C817D90731F461E08CE005
:100560000E94A60060E00EC082E0C81AD108CC1537
:10057000DD05A1F3CC15DD056CF561E08CE00E9492
:10058000A60061E08DE024C0CC16DD060CF046C06C
:100590008CE00E94A60060E08DE00E94A600C601EB
:1005A0000196C817D90741F461E08AE00E94A600CD
:1005B00060E08BE00E94A60082E0C80ED11CCC1542
:1005C000DD0519F561E08AE00E94A60060E08BE09D
:1005D0000E94A600809152029091530208171907B9
:1005E00044F0809150029091510260E08017910791
:1005F0000CF461E083E0DF91CF911F910F91FF90A8
:10060000EF90DF90CF900C94A600CC16DD0614F787
:1006100061E08AE00E94A60061E0D9CF8AE00E94F2
:10062000A60060E08BE00E94A60060E098CFCF9328
:10063000DF938EE00E94F200EC0164E670E080E05F
:1006400090E00E94290181E090E0C634D105B4F029
:1006500082E090E0CB3ED1058CF0CF3981E0D80725
:1006600084F0CC3682E0D8077CF0C03783E0D8072E
:1006700074F0CF3FD34074F090E080E0DF91CF91F1
:10068000089583E090E0FACF84E090E0F7CF85E032
:1006900090E0F4CF86E090E0F1CF0E941703892B21
:1006A000E1F764E170E080E090E00E9429010E949F
:1006B0001703892B91F70895CF93DF93EC0160E046
:1006C0008E810E94A60061E08E810E94A60060E0FB
:1006D0008E810E94A6008BE891E00197F1F7DF91EF
:1006E000CF910895CF92DF92EF92FF920F931F93D5
:1006F000CF93DF936C017C0187E0E80EF11CD0E022
:10070000C0E0062F10E0B8010C2E02C07595679569
:100710000A94E2F76170F70181917F010E94A600BF
:100720002196C430D10579F7C601DF91CF911F9191
:100730000F91FF90EF90DF90CF900C945C03CF92DD
:10074000DF92EF92FF920F931F93CF93DF93EC0111
:10075000F62E642F8C810E94A6008D818F3F19F0A8
:1007600060E00E94A6000F2D10E08F8584FF25C059
:100770006E0187E0C80ED11CF12CE12CB8010E2CC3
:1007800002C0759567950A94E2F76170F601819150
:100790006F010E94A600FFEFEF1AFF0A88E0E8163B
:1007A000F10461F7CE01DF91CF911F910F91FF907E
:1007B000EF90DF90CF900C945C03B80184E07595C6
:1007C00067958A95E1F7CE010E9472036F2DCE01E5
:1007D000DF91CF911F910F91FF90EF90DF90CF901D
:1007E0000C94720340E0682F86E592E00C949F031E
:1007F00081E00E94F2038BE39FE10197F1F70895F6
:10080000CF93DF93613029F09091650298609093C7
:1008100065026093690210926A0290E490936B0201
:1008200080936C02805C80936D0280915A020E94DA
:10083000870080915B028F3F11F00E9487008091BA
:100840005C020E948700C6E5D2E09E012655324038
:100850008091650284FD0AC084E090E0219628170B
:1008600039073CF48E810E948700EFCF88E090E04A
:10087000F5CF8BE39DE00197F1F760E080915A029C
:100880000E94A60060E080915C020E94A600809118
:100890005B028F3F19F060E00E94A6008091650224
:1008A00084FD34C063E086E592E00E947203CBE4ED
:1008B000D6E4CE010197F1F763E086E592E00E946D
:1008C00072032197F1F763E086E592E00E947203DC
:1008D00083E592E00197F1F762E086E592E00E94FD
:1008E00072038091650280620E94F20384E080932B
:1008F00066028CE00E94F2030E94F80382E080937B
:10090000670286E0DF91CF910C94F20380620E942F
:10091000F2038BE496E40197F1F78091650280621F
:100920000E94F20383E592E00197F1F7809165025E
:1009300080620E94F203D5CF643008F063E09091AA
:100940006902691710F06FEF690FE62FF0E0EA5ABD
:10095000FD4F9489890F80680C94F20341E00E9456
:100960009F0381E090E00895FB0101900020E9F7EA
:100970003197AF01461B570BDC01ED91FC910280D2
:10098000F381E02D09944F925F926F927F928F9244
:100990009F92AF92BF92CF92DF92EF92FF920F930E
:1009A0001F93CF93DF93CDB7DEB7A1970FB6F8941F
:1009B000DEBF0FBECDBF8C016B01770FEE08FF08C5
:1009C000F7FE44C06DE20E945B015C0122273327E1
:1009D000A9012C193D094E095F0919A2CE01819682
:1009E0007C019AE0492E512C612C712CCA01B9016D
:1009F000A30192010E94380C605DF70162937F01B0
:100A0000211531054105510589F790E080E03097C7
:100A100021F0BF01C8010E94B4048A0D9B1DA1965C
:100A20000FB6F894DEBF0FBECDBFDF91CF911F91FF
:100A30000F91FF90EF90DF90CF90BF90AF909F907D
:100A40008F907F906F905F904F900895A7019601CF
:100A500019A2CE0181967C018AE0882E912CA12CCE
:100A6000B12CCA01B901A50194010E94380C605D46
:100A7000F70162937F01211531054105510589F781
:100A800090E080E0309759F2BF01C8010E94B404A1
:100A9000C6CF0C94B4040E94F80360E085E00E9485
:100AA0009C0462E271E086E592E00E94490561E003
:100AB00086E00E949C0468E271E086E592E00E9474
:100AC000490562E086E00E949C046CE271E086E5E4
:100AD00092E00C9449050E94F80360E085E00E94D2
:100AE0009C0460E371E086E592E00E94490560E0C5
:100AF0008CE00E949C04609154027091550286E53E
:100B000092E00E94C30461E085E00E949C0467E3D8
:100B100071E086E592E00E94490561E08CE00E9468
:100B20009C04609152027091530286E592E00E940B
:100B3000C30461E08EE00E949C046FE371E086E5EF
:100B400092E00E94490561E080E10E949C0460916E
:100B500050027091510286E592E00E94C30462E067
:100B600084E00E949C0463E471E086E592E00E94C8
:100B7000490563E082E00E949C0463E571E086E53C
:100B800092E00C9449058F929F92AF92BF92CF92C0
:100B9000DF92EF92FF922FB7F8948091AB01909182
:100BA000AC01A091AD01B091AE012FBFC09000018A
:100BB000D0900101E0900201F09003018C159D0599
:100BC000AE05BF0508F466C0E8E9F1E0AAE9B1E0C6
:100BD00092918291938382831C968D919C911D9713
:100BE0001F969C938E931E97129781E0EA38F80720
:100BF00079F7809154029091550290939B018093D4
:100C00009A018FE00E94F200BC01990F880B990BAA
:100C10000E943F0B20E030E040E05FE30E94A30B26
:100C20000E94070B4B0170938B0160938A0180ED4A
:100C3000C80E87E0D81EE11CF11CC0920001D092C2
:100C40000101E0920201F092030160E371E083EBA5
:100C500091E00E944905609154027091550283EB26
:100C600091E00E94C30466E671E083EB91E00E948C
:100C7000B40469E671E083EB91E00E944905B40198
:100C800083EB91E00E94C30466E671E083EB91E0A0
:100C90000E94B40461E070E080E090E0FF90EF908B
:100CA000DF90CF90BF90AF909F908F900C942901D0
:100CB0000C94F10A80915402909155028F3F910556
:100CC00021F4109255021092540280915202909198
:100CD00053028F3F910521F4109253021092520259
:100CE00080915002909151028F3F910521F4109212
:100CF0005102109250020E946B0560E081E00E9458
:100D00009C046EE386E592E00E945B0160E082E174
:100D10000E949C046CE386E592E00E945B01F12C4A
:100D2000E12C0E9473020E94C3050E9417038130C8
:100D3000910509F472C02CF4892B99F70E94730273
:100D4000F0CF8230910509F487C0039751F781E015
:100D5000E816F10409F429C10CF086C0E114F1048D
:100D600001F76CE271E080E090E00E94290190E0E0
:100D700080E00E94580690E0843691050CF0E0C0B7
:100D80009093550280935402C0915402D091550221
:100D90000E94F80360E082E00E949C0463E771E037
:100DA00086E592E00E94490561E083E00E949C0490
:100DB0006CE771E086E592E00E94490561E085E01C
:100DC0000E949C04BE0186E592E00E94C3040E943A
:100DD000C3050E9417038230910509F4C4C00CF0CA
:100DE000B4C00197A1F7C336D1050CF4219661E098
:100DF00083E00E949C046CE771E086E592E00E942B
:100E0000490561E085E00E949C04BE0186E592E010
:100E10000E94C3040E944D03DACFE114F10419F0DB
:100E200081E0E81AF1080E94F8030E946B056E2D1C
:100E300081E00E949C046EE386E592E00E945B01E3
:100E40006E2D82E10E949C046CE386E592E00E9494
:100E50005B010E944D0365CFE3E0EE16F1041CF741
:100E6000FFEFEF1AFF0ADFCFF2E0EF16F10409F40B
:100E7000B7C183E0E816F10409F053CF6CE271E0EA
:100E800080E090E00E9429010E94F8030AE811E046
:100E9000D0E0C0E0FC2E6C2F80E00E949C042196E4
:100EA000BE0186E592E00E94C3046F2D81E00E949E
:100EB0009C0468E871E086E592E00E9449056F2D88
:100EC00083E00E949C04F801619171918F0186E595
:100ED00092E00E94C304C430D105E1F602E911E0BA
:100EE000D0E0C0E06C2F8AE00E949C04BE016B5FE2
:100EF0007F4F86E592E00E94C3046C2F8BE00E9436
:100F00009C0468E871E086E592E00E9449056C2F38
:100F10008DE00E949C04F801619171918F0186E53A
:100F200092E00E94C3042196C430D105D9F60E94F4
:100F3000C3050E9417030397029708F4B1C1F7CFC6
:100F400010925502109254021FCF8330910519F16F
:100F5000049709F03CCF6CE271E080E090E00E94E1
:100F600029010E945A061C161D060CF4219761E007
:100F700083E00E949C046CE771E086E592E00E94A9
:100F8000490561E086E00E949C0460E286E592E00B
:100F90000E945B0136CF6C2F90E080E00E94F90A3E
:100FA000D0935502C0935402D6CF6CE271E080E03A
:100FB00090E00E94290181E090E00E945806C82F2D
:100FC000D0E0D0935302C093520282E090E00E949E
:100FD0005806082F10E01093510200935002C436B7
:100FE000D10514F0D0E0C0E00436110514F010E093
:100FF00000E00E944B0561E08BE00E949C04BE0172
:1010000086E592E00E94C30462E08BE00E949C04AB
:10101000B80186E592E00E94C30461E081E00E948D
:101020009C046EE386E592E00E945B0161E082E150
:101030000E949C046CE386E592E00E945B010E94A2
:10104000C3050E9417036C018330910509F472C037
:1010500054F581E0C816D10409F440C0E2E0CE1690
:10106000D10469F70E94F8030E944B0561E08BE010
:101070000E949C04BE0186E592E00E94C30462E0E7
:101080008BE00E949C04B80186E592E00E94C304B4
:1010900062E081E00E949C046EE386E592E00E949B
:1010A0005B0162E03BC0059709F457C085E0C816B4
:1010B000D1040CF450CFE6E0CE16D10409F0BFCF36
:1010C00081E0E816F10409F082C0209709F450C0CD
:1010D000C017D1070CF04CC021974AC00E94F803FA
:1010E0000E944B0561E08BE00E949C04BE0186E5F6
:1010F00092E00E94C30462E08BE00E949C04B8016D
:1011000086E592E00E94C30461E081E00E949C04B5
:101110006EE386E592E00E945B0161E082E10E945D
:101120009C046CE386E592E00E945B010E944D0303
:10113000760185CF6C2F81E090E00E94F90AD09370
:101140005302C0935202602F82E090E00E94F90A9D
:101150001093510200935002FECEF1E0EF16F1041D
:10116000F1F4C336D10521F0C017D1070CF4219654
:1011700061E08BE00E949C0462E871E086E592E009
:101180000E94490561E08BE00E949C04BE0186E557
:1011900092E00E94C3040E944D036701C9CF033649
:1011A000110529F00C171D0714F00F5F1F4F62E0A7
:1011B0008BE00E949C0462E871E086E592E00E9468
:1011C000490562E08BE00E949C04B801E0CF011564
:1011D000110569F30C171D0754F301501109E7CFEE
:1011E0006CE271E080E090E00E9429010E94F80327
:1011F0000AE911E0D0E0C0E0FC2E6C2F80E00E94F4
:101200009C042196BE0186E592E00E94C3046F2DE6
:1012100081E00E949C0468E871E086E592E00E940B
:1012200049056F2D83E00E949C04F8016191719142
:101230008F0186E592E00E94C304C430D105E1F637
:1012400002EA11E0D0E0C0E06C2F8AE00E949C042A
:10125000BE016B5F7F4F86E592E00E94C3046C2F56
:101260008BE00E949C0468E871E086E592E00E94B1
:1012700049056C2F8DE00E949C04F80161917191E9
:101280008F0186E592E00E94C3042196C430D10507
:10129000D9F60E94C3050E94170303970297C8F767
:1012A00068EC70E080E090E05ACE1F920F920FB68B
:1012B0000F9211242F933F938F939F93AF93BF93DC
:1012C0008091AB019091AC01A091AD01B091AE01C4
:1012D0003091AA0123E0230F2D3758F50196A11D67
:1012E000B11D2093AA018093AB019093AC01A09310
:1012F000AD01B093AE018091AF019091B001A0918A
:10130000B101B091B2010196A11DB11D8093AF0151
:101310009093B001A093B101B093B201BF91AF918E
:101320009F918F913F912F910F900FBE0F901F9023
:10133000189526E8230F0296A11DB11DD2CF1F924A
:101340000F920FB60F9211242F933F934F935F93F9
:101350006F937F938F939F93AF93BF93EF93FF937D
:1013600083EB91E00E94E001FF91EF91BF91AF917B
:101370009F918F917F916F915F914F913F912F91AD
:101380000F900FBE0F901F9018951F920F920FB6DF
:101390000F9211242F938F939F93EF93FF93E091DC
:1013A000C301F091C4018081E091C901F091CA01AB
:1013B00082FD1BC090818091CC018F5F8F73209143
:1013C000CD01821741F0E091CC01F0E0ED54FE4FE9
:1013D000958F8093CC01FF91EF919F918F912F91E9
:1013E0000F900FBE0F901F9018958081F4CFE3EB04
:1013F000F1E01382128288EE93E0A0E0B0E08483F3
:101400009583A683B78388E091E09183808385EC00
:1014100090E09587848784EC90E09787868780ECBE
:1014200090E0918B808B81EC90E0938B828B82ECAF
:1014300090E0958B848B86EC90E0978B868B118E59
:10144000128E138E148EE6E5F2E0138212828AE188
:1014500091E09183808388E084838FEF858389E0A6
:10146000868384E0878385E0808786E0818787E0C4
:1014700082871386148615861686178661E080E1BA
:101480000E94000490E080E00E94580690E0909353
:1014900055028093540281E090E00E94580690E04B
:1014A000909353028093520282E090E00E9458068B
:1014B00090E090935102809350020895789484B5FF
:1014C000826084BD84B5816084BD85B5826085BD40
:1014D00085B5816085BDEEE6F0E080818160808326
:1014E000E1E8F0E010828081826080838081816009
:1014F0008083E0E8F0E0808181608083E1EBF0E0D0
:10150000808184608083E0EBF0E080818160808373
:10151000EAE7F0E08081846080838081826080835C
:101520008081816080838081806880831092C10087
:10153000E3EBF1E0A089B18982E08C93A485B585C5
:101540001C92A685B7858FEC8C93108EA489B589E3
:1015500086E08C93A289B3898C9180618C93A28957
:10156000B3898C9188608C93A289B3898C918068AF
:101570008C930288F389E02D80818F7D808364E0E5
:1015800084E10E94000483E00E9487008AE00E94B8
:1015900087008BE00E9487008CE00E9487008DE02E
:1015A0000E9487008FE00E94F20020915402309147
:1015B000550230939B0120939A01BC01990F880B2F
:1015C000990B0E943F0B20E030E040E05FE30E9477
:1015D000A30B0E94070B70938B0160938A010E94FA
:1015E0005A06F999FECF92BD81BDF89A992780B528
:1015F0000895262FF999FECF1FBA92BD81BD20BD57
:101600000FB6F894FA9AF99A0FBE019608950E94BF
:101610000E0B6894B1110C949D0B08950E94820BDF
:1016200088F09F5798F0B92F9927B751B0F0E1F0A3
:10163000660F771F881F991F1AF0BA95C9F714C053
:10164000B13091F00E949C0BB1E008950C949C0B7A
:10165000672F782F8827B85F39F0B93FCCF386958C
:1016600077956795B395D9F73EF4909580957095E9
:1016700061957F4F8F4F9F4F0895E89409C097FB66
:101680003EF490958095709561957F4F8F4F9F4F59
:101690009923A9F0F92F96E9BB279395F69587959D
:1016A00077956795B795F111F8CFFAF4BB0F11F460
:1016B00060FF1BC06F5F7F4F8F4F9F4F16C0882307
:1016C00011F096E911C0772321F09EE8872F762F3D
:1016D00005C0662371F096E8862F70E060E02AF07E
:1016E0009A95660F771F881FDAF7880F969587956A
:1016F00097F9089557FD9058440F551F59F05F3FD3
:1017000071F04795880F97FB991F61F09F3F79F023
:1017100087950895121613061406551FF2CF4695A5
:10172000F1DF08C0161617061806991FF1CF869527
:101730007105610508940895E894BB27662777270B
:10174000CB0197F908950E94B60B0C94270C0E94C8
:10175000190C38F00E94200C20F0952311F00C9405
:10176000100C0C94160C11240C949D0B0E947A0BF7
:1017700070F3959FC1F3950F50E0551F629FF001E4
:10178000729FBB27F00DB11D639FAA27F00DB11DFD
:10179000AA1F649F6627B00DA11D661F829F222786
:1017A000B00DA11D621F739FB00DA11D621F839F0D
:1017B000A00D611D221F749F3327A00D611D231FE3
:1017C000849F600D211D822F762F6A2F11249F5731
:1017D00050409AF0F1F088234AF0EE0FFF1FBB1F34
:1017E000661F771F881F91505040A9F79E3F5105F3
:1017F00080F00C94100C0C949D0B5F3FE4F3983E2A
:10180000D4F3869577956795B795F795E7959F5F9C
:10181000C1F7FE2B880F911D9695879597F908952E
:1018200097F99F6780E870E060E008959FEF80EC93
:10183000089500240A941616170618060906089536
:1018400000240A9412161306140605060895092E9C
:101850000394000C11F4882352F0BB0F40F4BF2B0B
:1018600011F460FF04C06F5F7F4F8F4F9F4F08954B
:10187000A1E21A2EAA1BBB1BFD010DC0AA1FBB1F94
:10188000EE1FFF1FA217B307E407F50720F0A21B06
:10189000B30BE40BF50B661F771F881F991F1A9473
:1018A00069F760957095809590959B01AC01BD019D
:1018B000CF010895EE0FFF1F0590F491E02D0994DC
:0418C000F894FFCFCA
:1018C400D007000000000000020262018F014F02F5
:1018D400C0019E01B20100000000AE04620170026A
:1018E4006F0252616E6765004D696E004D6178004C
:1018F40054656D703A200052616E67653A2000208D
:101904002D2000204C4F47204D454E552854656DE1
:10191400702900204C4F47204D454E552852756E76
:101924006E696E6729000D0A0043757272656E74E4
:101934003A20005345542054454D50002020202087
:0A19440020202020202020003A007F
:00000001FF
